:100000000C9434000C943E000C943E000C943E0082
:100010000C943E000C943E000C943E000C943E0068
:100020000C943E000C943E000C943E000C943E0058
:100030000C943E000C943E000C943E000C943E0048
:100040000C943E000C943E000C943E000C943E0038
:100050000C943E000C943E000C943E000C943E0028
:100060000C943E000C943E0011241FBECFEFD8E04C
:10007000DEBFCDBF0E94AF000C94F3000C940000D3
:10008000092E000CAA0BBB0B9C01AD0184E0220FD2
:10009000331F441F551F8A95D1F760E074E284EF47
:1000A00090E00E94D100215031093093C500209387
:1000B000C40088E18093C10086E08093C200E0EC38
:1000C000F0E080818D7F808308959091C00095FF3E
:1000D000FCCF8093C60008958091C00087FFFCCFBD
:1000E0008091C6000895811102C028980895289A29
:1000F0000895259A08958AB183788AB98BB18C675F
:100100008BB9089529B12695269531E02327822FB2
:10011000817090E04B9903C022E030E002C020E003
:1001200030E0820F931F4C9903C024E030E002C0FE
:1001300020E030E0820F931F4D9903C028E030E0AB
:1001400002C020E030E0820F931F4E9903C020E1EF
:1001500030E002C020E030E0820F931F089580E875
:1001600095E20E9440000E9479000E947B00C0E25C
:100170000E948200009719F0805E0E9465000E9434
:100180006C0090E08133910529F481E40E946500C0
:10019000C5B9EECFC09761F782E40E94650015B83B
:1001A000E7CFA1E21A2EAA1BBB1BFD010DC0AA1F9F
:1001B000BB1FEE1FFF1FA217B307E407F50720F0D0
:1001C000A21BB30BE40BF50B661F771F881F991F4B
:1001D0001A9469F760957095809590959B01AC0194
:0A01E000BD01CF010895F894FFCF90
:00000001FF
