:100000000C9434000C943E000C943E000C943E0082
:100010000C943E000C943E000C943E000C943E0068
:100020000C943E000C943E000C943E000C943E0058
:100030000C943E000C943E000C943E000C943E0048
:100040000C943E000C943E000C943E000C943E0038
:100050000C943E000C943E000C943E000C943E0028
:100060000C943E000C943E0011241FBECFEFD8E04C
:10007000DEBFCDBF0E94AB000C94F8000C940000D2
:10008000F894092E000CAA0BBB0B9C01AD0184E077
:10009000220F331F441F551F8A95D1F760E074E289
:1000A00084EF90E00E94D600215031093093C500C2
:1000B0002093C40088E18093C10086E08093C20051
:1000C000E0ECF0E080818D7F8083789408959091BA
:1000D000C00095FFFCCF8093C60008958091C000BA
:1000E00087FFFCCF8091C6000895259A08958AB1B4
:1000F00083788AB98BB18C678BB9089529B126951D
:10010000269531E02327822F817090E04B9903C020
:1001100022E030E002C020E030E0820F931F4C99D3
:1001200003C024E030E002C020E030E0820F931FE3
:100130004D9903C028E030E002C020E030E0820F9B
:10014000931F4E9903C020E130E002C020E030E070
:10015000820F931F089580E895E20E9440000E945C
:1001600075000E947700C0E20E947E00009719F09F
:10017000805E0E9467008091C00087FF0DC00E94D2
:100180006E00813321F40E946700C5B905C0803339
:1001900019F40E94670015B82FEF80E792E0215014
:1001A00080409040E1F700C00000DECFA1E21A2EAF
:1001B000AA1BBB1BFD010DC0AA1FBB1FEE1FFF1F0B
:1001C000A217B307E407F50720F0A21BB30BE40B5B
:1001D000F50B661F771F881F991F1A9469F76095A2
:1001E0007095809590959B01AC01BD01CF0108955C
:0401F000F894FFCFB1
:00000001FF
